:10000000000600209D330000093400001134000078
:1000100019340000193400001934000000000000F9
:100020000000000000000000000000001934000083
:1000300019340000000000001934000019340000D9
:10004000193400001934000019340000193400007C
:10005000193400001934000019340000193400006C
:10006000193400001934000019340000193400005C
:10007000193400001934000019340000193400004C
:10008000193400001934000019340000193400003C
:10009000193400001934000019340000193400002C
:1000A000193400001934000019340000193400001C
:1000B000193400001934000019340000193400000C
:1000C00019340000193400001934000019340000FC
:1000D00019340000193400001934000019340000EC
:1000E0001934000000000000000000001934000076
:1000F00019340000193400001934000019340000CC
:1001000019340000193400001934000019340000BB
:100110000000000000000000193400001934000045
:10012000193400001934000019340000193400009B
:10013000193400001934000019340000193400008B
:1001400000000000000000000000000000000000AF
:10015000193400001934000019340000193400006B
:10016000000000000000000000000000000000008F
:10017000000000000000000000000000000000007F
:10018000000000000000000000000000000000006F
:10019000000000000000000000000000000000005F
:1001A000000000000000000000000000000000004F
:1001B000193400001934000019340000193400000B
:1001C00019340000193400001934000019340000FB
:1001D00019340000193400001934000019340000EB
:1001E0001934000019340000193400000000000028
:1001F0000000000019340000193400001934000018
:100200001934000019340000000000000000000054
:1002100019340000193400001934000019340000AA
:10022000193400001934000019340000193400009A
:10023000193400001934000019340000193400008A
:10024000193400001934000019340000193400007A
:10025000193400001934000019340000193400006A
:1002600019340000193400001934000080B500AFC3
:10027000114803F044FC012003F008FC40F2014067
:1002800003F004FC03214FF0402003F0F0FB03F0E7
:1002900047FC014660234FF416524FF0402003F014
:1002A000EEFC03F03DFC03461A464FF416510020C5
:1002B00003F0B6F800BF80BD000800F080B400AFC6
:1002C000164B00221A801FE0144B1B889BB2194664
:1002D000124B1B889BB21A46114B33F812309AB25C
:1002E0000E4B1B889BB218460E4B33F810309BB256
:1002F000D31A9AB20A4B23F81120084B1B889BB2E1
:1003000001339AB2054B1A80044B1B889BB2042B15
:10031000DAD900BFBD465DF8047B7047E8040020D1
:10032000D4060020F404002080B400AF0E4B00225D
:100330001A800EE00C4B1B889BB21A460B4B002117
:1003400023F81210084B1B889BB201339AB2064B5C
:100350001A80054B1B889BB2042BEBD900BFBD460E
:100360005DF8047B704700BFE8040020F40400201F
:1003700080B483B000AF0F4A0E4B1B6843F02003DC
:1003800013600C4B1B687B600B4B0C4A1A600C4BC8
:1003900001221A600B4B0E221A600B4B11221A60BD
:1003A0000A4B1F221A6000BF0C37BD465DF8047B64
:1003B000704700BF08E60F40205502404B434F4CAA
:1003C0002455024000540240105502401C55024082
:1003D00080B483B000AF0C4A0B4B1B6843F0100392
:1003E0001360094B1B687B60084A084B1B6813604D
:1003F000074A074B1B6843F0FF03136000BF0C372D
:10040000BD465DF8047B704708E10F4000440240A0
:100410001C45024080B483B000AF104A0F4B1B68EC
:1004200043F0080313600D4B1B687B600C4A0C4BB8
:100430001B6843F00F0313600A4A0A4B1B6823F042
:100440000F031360084A084B1B6843F00F03136047
:1004500000BF0C37BD465DF8047B704708E10F40D4
:1004600000740040207400401C75004080B485B0CA
:1004700000AF78600023FB8112E00023BB8104E021
:10048000BB899BB201339BB2BB81BB899BB240F657
:100490006B429342F4D9FB899BB201339BB2FB813F
:1004A000FB899BB21A467B689A42E6DB00BF143791
:1004B000BD465DF8047B704780B485B000AF7860BE
:1004C0000023FB8110E00023BB8104E0BB899BB2C9
:1004D00001339BB2BB81BB899BB2022BF6D9FB894E
:1004E0009BB201339BB2FB81FB899BB21A467B68AE
:1004F0009A42E8DB00BF1437BD465DF8047B7047C5
:1005000080B582B000AF03460A46FB711346BB714B
:10051000FB7923F00F03FB71BB7903F00F03BB7171
:100520000C49FA79BB791343DBB20B600949FA79BC
:10053000BB791343DBB243F00403DBB20B60002052
:10054000FFF7BAFF034AFB79136000BF0837BD46C7
:1005500080BD00BFFC53004080B582B000AF0346B1
:10056000FB71FB7923F00F03DBB200211846FFF784
:10057000C7FFFB791B01DBB200211846FFF7C0FF64
:10058000FB79032B03D80220FFF770FF02E028203D
:10059000FFF792FF00BF0837BD4680BD80B582B02F
:1005A00000AF0346FB71FB7923F00F03DBB201219F
:1005B0001846FFF7A5FFFB791B01DBB201211846A6
:1005C000FFF79EFF2820FFF777FF00BF0837BD46E3
:1005D00080BD00BF80B582B000AF786008E07B6866
:1005E0005A1C7A6093F90030DBB21846FFF7D6FF49
:1005F0007B6893F90030002BF1D100BF0837BD466E
:1006000080BD00BF80B582B000AF03460A46FB71D3
:100610001346BB7197F90730012B11D197F90630BA
:100620005A1E124B1340002B03DA013B63F00F03F9
:100630000133DBB2803BDBB21846FFF78DFF10E0E1
:1006400097F906305A1E094B1340002B03DA013B81
:1006500063F00F030133DBB2403BDBB21846FFF718
:100660007BFF00BF0837BD4680BD00BF0F00008084
:1006700080B500AF0120FFF76FFF6420FFF7F6FEA3
:1006800000BF80BD80B500AF0F4A0F4B1B6843F021
:10069000020313600D4A0D4B1B6843F0FF03136008
:1006A0000B4A0B4B1B6843F0FF0313602820FFF736
:1006B00053FF0620FFF750FF0120FFF74DFF0F20EB
:1006C000FFF74AFF00BF80BD08E10F400054004023
:1006D0001C55004080B584B000AF974B00221A80B3
:1006E000ECE1954B1B889BB21A4613469B001344C2
:1006F0009A001344914A13449149184604F04EF865
:1007000003461A468F4B1A608B4B1B889BB2002BFB
:1007100028D10023FB6021E0FB689B008A4A1A4431
:10072000884B1B681946104603F04EFFFB689B0080
:10073000854A1344184603F005FF034699B2834ADD
:10074000FB6822F813107E49002004F027F80346C6
:100750001A467C4B1A60FB680133FB60794B1B68BF
:10076000002BD9D1744B1B889BB2012B45D10023A0
:10077000FB603EE0FB689B00754A1A44714B1B68A6
:100780001946104603F020FF714803F0DBFE0346D4
:100790009AB2704B1A80FB68012B05D1694B1B681C
:1007A00019466D4803F010FF6C4B184603F0CAFE63
:1007B00003469AB26A4B1A80FB68032B05D1614B42
:1007C0001B681946674803F0FFFEFB68042B05D140
:1007D000654A3B1D1146184603F0F6FE58490020B5
:1007E00003F0DCFF03461A46564B1A60FB680133E0
:1007F000FB60544B1B68002BBCD14F4B1B889BB23A
:10080000022B45D10023FB603EE0FB689B00574A6A
:100810001A444C4B1B681946104603F0D5FE53484A
:1008200003F090FE03469AB24A4B5A80FB68012BB4
:1008300005D1444B1B6819464D4803F0C5FE4D4B8E
:10084000184603F07FFE03469AB2454B5A80FB6878
:10085000032B05D13B4B1B681946474803F0B4FEF8
:10086000FB68042B05D1454A3B1D1146184603F091
:10087000ABFE3349002003F091FF03461A46314B8B
:100880001A60FB680133FB602E4B1B68002BBCD148
:10089000294B1B889BB2032B45D10023FB603EE014
:1008A000FB689B00364A1A44264B1B6819461046C3
:1008B00003F08AFE324803F045FE03469AB2254B08
:1008C0009A80FB68012B05D11E4B1B6819462D48E9
:1008D00003F07AFE2C4B184603F034FE03469AB21E
:1008E0001F4B9A80FB68032B05D1164B1B681946DA
:1008F000264803F069FEFB68042B05D1244A3B1D02
:100900001146184603F060FE0D49002003F046FF33
:1009100003461A460B4B1A60FB680133FB60094B18
:100920001B68002BBCD1044B1B889BB2042B74D1D9
:100930000023FB606DE000BFE80400200000002001
:10094000DC4900003C060020E006002004060020F0
:100950007C06002048060020A40600208406002013
:10096000D4060020EC0600208C0600205C06002047
:10097000AD06002064060020F10600206C06002071
:100980000C060020B606002014060020F606002003
:100990001C060020FB689B00574A1A44574B1B68F3
:1009A0001946104603F010FE534803F0CBFD0346F2
:1009B0009AB2534BDA80FB68012B05D14F4B1B6871
:1009C0001946504803F000FE4F4B184603F0BAFD9D
:1009D00003469AB24D4BDA80FB68032B05D1474B97
:1009E0001B6819464A4803F0EFFDFB68042B05D14C
:1009F000484A3B1D1146184603F0E6FD46490020D3
:100A000003F0CCFE03461A463C4B1A60FB680133E8
:100A1000FB603A4B1B68002BBCD1404B1B889BB240
:100A2000052B44D10023FB603DE0FB689B003C4A62
:100A30001A44324B1B681946104603F0C5FD38486E
:100A400003F080FD03469AB22D4B1A81FB68012BFF
:100A500004D1344B1946344803F0B6FD334B1846E5
:100A600003F070FD03469AB2284B1A81FB68032BF2
:100A700005D1224B1B6819462D4803F0A5FDFB68E4
:100A8000042B05D12B4A3B1D1146184603F09CFD53
:100A90002149002003F082FE03461A46174B1A60D4
:100AA000FB680133FB60154B1B68002BBDD11B4B52
:100AB0001B889BB201339AB2184B1A80174B1B88C4
:100AC0009BB2052B7FF60DAE1B4B4FF07C521A608C
:100AD000194B4FF07E525A60174B4FF07F529A607D
:100AE000154B164ADA60144B4FF080421A6100BF72
:100AF0001037BD4680BD00BF200600203C06002008
:100B000048060020BF06002028060020D40600204A
:100B1000FB06002030060020DC490000E80400202D
:100B20009006002094060020C806002098060020A9
:100B300000070020A00600200C0700200000E03F76
:100B400080B59AB000AFC04B1B889BB218463B1DC6
:100B50000A22194603F016FD3B1D1946BB4803F057
:100B600033FDBA4803F0ACFD03461A46B74B1344B5
:100B7000B7491A460B461B881380B34B5B889BB260
:100B800018463B1D0A22194603F0FCFC3B1D194682
:100B9000AE4803F0F9FCAD4803F092FD03461A4657
:100BA000AA4B1344AA491A460B461B881380A64B2E
:100BB0009B889BB218463B1D0A22194603F0E2FCB3
:100BC0003B1D1946A14803F0DFFCA24B1B889BB2DA
:100BD00018463B1D0A22194603F0D4FC3B1D19465A
:100BE0009D4803F0F1FC9C4803F06AFD03461A4659
:100BF000994B134496491A460B461B881380974914
:100C0000954803F0C1FC944803F05AFD03461A4688
:100C1000914B13448E491A460B461B881380904B08
:100C20001B889BB218463B1D0A22194603F0AAFCFA
:100C30003B1D1946884803F0A7FC874803F040FD98
:100C400003461A46844B134481491A460B461B88B7
:100C50001380844BD3ED007AB7EE007AF4EEC77AB6
:100C6000F1EE10FA12D580497B4803F08DFC7A48EA
:100C700003F026FD03461A46774B13447B4A10685F
:100C800018609188927999809A710DE0764972483E
:100C900003F07AFC704803F013FD03461A466E4BCE
:100CA0001344734A106818606A4B5B889BB21846FD
:100CB0003B1D0A22194603F065FC3B1D19466D4891
:100CC00003F082FC6B4803F0FBFC03461A46694BB9
:100CD00013445F491A460B461B88138066496548D2
:100CE00003F052FC634803F0EBFC03461A46614BE9
:100CF000134457491A460B461B881380584B5B8890
:100D00009BB218463B1D0A22194603F03BFC3B1DD3
:100D10001946584803F038FC564803F0D1FC034606
:100D20001A46544B13444A491A460B461B881380F3
:100D30004C4BD3ED017AB7EE007AF4EEC77AF1EEC0
:100D400010FA12D54D494B4803F01EFC494803F0F8
:100D5000B7FC03461A46474B1344444A10681860D0
:100D60009188927999809A710DE04449414803F045
:100D70000BFC404803F0A4FC03461A463D4B1344C9
:100D80003B4A10681860334B9B889BB218463B1D4A
:100D90000A22194603F0F6FB3B1D1946384803F0BA
:100DA00013FC374803F08CFC03461A46344B1344BB
:100DB00027491A460B461B8813803249304803F0F6
:100DC000E3FB2F4803F07CFC03461A462C4B1344EC
:100DD0001F491A460B461B881380214B9B889BB2E8
:100DE00018463B1D0A22194603F0CCFB3B1D194651
:100DF000234803F0C9FB224803F062FC03461A466D
:100E00001F4B134412491A460B461B881380154B7F
:100E1000D3ED027AB7EE007AF4EEC77AF1EE10FA6B
:100E200034D51949164803F0AFFB154803F048FCC8
:100E300003461A46124B13440C4A106818609188F6
:100E4000927999809A712FE004060020000000201A
:100E5000E04900004806002019000020A4060020F8
:100E6000D40600200C070020EC060020E449000016
:100E7000EC49000032000020AD060020F106002001
:100E80004B000020B6060020F6060020774978487F
:100E900003F07AFB764803F013FC03461A46744BC2
:100EA0001344744A10681860734BDB889BB2184671
:100EB0003B1D0A22194603F065FB3B1D19466F488E
:100EC00003F082FB6D4803F0FBFB03461A466B4BB5
:100ED00013446B491A460B461B88138069496748BF
:100EE00003F052FB654803F0EBFB03461A46634BE5
:100EF000134463491A460B461B881380624BDB88F8
:100F00009BB218463B1D0A22194603F03BFB3B1DD2
:100F100019465A4803F038FB584803F0D1FB034602
:100F20001A46564B134456491A460B461B881380E3
:100F3000564BD3ED037AB7EE007AF4EEC77AF1EEB2
:100F400010FA12D552494D4803F01EFB4B4803F0EE
:100F5000B7FB03461A46494B13444E4A10681860C3
:100F60009188927999809A710DE04949434803F03C
:100F70000BFB424803F0A4FB03461A463F4B1344C5
:100F80003C4A106818603C4B1B899BB218463B1DBD
:100F90000A22194603F0F6FA3B1D19463E4803F0B3
:100FA00013FB3D4803F08CFB03461A463A4B1344AF
:100FB00033491A460B461B8813803849364803F0DC
:100FC000E3FA354803F07CFB03461A46324B1344E0
:100FD0002B491A460B461B8813802B4B1B899BB24F
:100FE00018463B1D0A22194603F0CCFA3B1D194650
:100FF000294803F0C9FA284803F062FB03461A4661
:10100000254B13441E491A460B461B8813801F4B61
:10101000D3ED047AB7EE007AF4EEC77AF1EE10FA67
:1010200012D51F491C4803F0AFFA1B4803F048FBD8
:1010300003461A46184B1344164A106818609188E4
:10104000927999809A710DE01549134803F09CFA42
:10105000114803F035FB03461A460F4B1344054A6B
:101060001068186000BF6837BD4680BDF6060020D6
:101070004B000020EC4900004806002064000020DE
:10108000E0490000BF060020D40600200C07002025
:10109000FB060020E44900007D000020C806002077
:1010A0000007002080B500AFFFF7E0F86420FFF7ED
:1010B000DDF9384B00221A8062E0374B00221A809B
:1010C0004CE0344B1B889BB21A46334B1B889BB2B7
:1010D0001846324913469B0013449A0013440B44AC
:1010E00003441B785BB22C2B03D12D4802F0FEFB8E
:1010F0002DE0284B1B889BB21A46274B1B889BB2BE
:101100001846264913469B0013449A0013440B4487
:1011100003441B785BB2202B03D1224802F0E6FB8C
:1011200015E01C4B1B889BB21A461B4B1B889BB2BD
:1011300018461A4913469B0013449A0013440B4463
:1011400003441B785BB21946174802F0CFFB124BE1
:101150001B889BB201339AB20F4B1A800E4B1B882F
:101160009BB2182BADD96420FFF780F90F4802F02D
:10117000BDFB084B1B889BB201339AB2054B1A800A
:10118000044B1B889BB2052B97D9094802F0AEFB94
:1011900000BF80BDE8040020EA0400200000002019
:1011A000F0490000F4490000F8490000FC49000043
:1011B000004A0000B0B582B000AFFFF763FA01202B
:1011C000FFF7CAF98020FFF7C7F94FF4FA70FFF76D
:1011D0004DF9FFF7FDF8FFF71DF9FFF7C9F8FFF725
:1011E00045F8FFF75FFFFFF775FAAF4AAE4B1B6894
:1011F00043F020031360AD4AAC4B1B6843F00A0375
:101200001360AB4AAA4B1B6843F00A031360FFF755
:101210002FFA6420FFF72AF903210120FFF7F2F9E2
:10122000A448FFF7D7F904210220FFF7EBF9A24801
:10123000FFF7D0F9A14B1B6803F00103A04A13602C
:10124000A04B1B889BB2002B40F0F2839E4B1B6887
:1012500003F001039D4A13609B4B1B6803F00203DC
:101260009B4A1360984B1B6803F00403994A136070
:10127000954B1B6803F00803974A1360974B1B6854
:101280000133964A1360914B1B68002B6AD0FFF71D
:10129000EFF96420FFF7EAF8914B1B889BB201330A
:1012A0009AB28F4B1A808E4B1B889BB2092B1BD88E
:1012B00001210120FFF7A6F9894B1B889BB2DBB205
:1012C0003033DBB21846FFF769F903210120FFF73D
:1012D00099F98448FFF77EF901210220FFF792F97E
:1012E0008148FFF777F93DE001210120FFF78AF9F6
:1012F0007B4B1B889BB27D4AA2FB0323DB089BB27E
:10130000DBB23033DBB21846FFF748F9744B1B8869
:101310009BB2DAB2724B1B889BB27449A1FB0313D8
:10132000DB089BB2DBB219464901C91A8900CB1A06
:101330005B00DBB21344DBB23033DBB21846FFF79D
:101340002DF904210120FFF75DF96648FFF742F906
:1013500001210220FFF756F96348FFF73BF96420AB
:10136000FFF784F85A4B1B68002B6AD0FFF780F90F
:101370006420FFF77BF85E4B1B889BB201339AB267
:101380005B4B1A805A4B1B889BB2092B1BD801213F
:101390000120FFF737F9564B1B889BB2DBB2303385
:1013A000DBB21846FFF7FAF803210120FFF72AF90C
:1013B0005048FFF70FF901210220FFF723F94A48AF
:1013C000FFF708F93DE001210120FFF71BF9484B29
:1013D0001B889BB2454AA2FB0323DB089BB2DBB20E
:1013E0003033DBB21846FFF7D9F8414B1B889BB26C
:1013F000DAB23F4B1B889BB23C49A1FB0313DB08CD
:101400009BB2DBB219464901C91A8900CB1A5B00AD
:10141000DBB21344DBB23033DBB21846FFF7BEF861
:1014200004210120FFF7EEF83248FFF7D3F801213D
:101430000220FFF7E7F82C48FFF7CCF86420FFF70D
:1014400015F8244B1B68002B00F09880FFF710F96B
:101450006420FFF70BF8284B1B889BB201339AB22C
:10146000254B1A80244B1B889BB2092B48D801219D
:101470000120FFF7C7F8204B1B889BB2DBB230334B
:10148000DBB21846FFF78AF803210120FFF7BAF80C
:101490001A48FFF79FF801210220FFF7B3F812481E
:1014A000FFF798F86AE000BF08E10F4000540240DF
:1014B0001C550240244A0000304A0000FC53024000
:1014C00008070020EC040020FC4302402007002015
:1014D000740600207006002054060020F00400204E
:1014E000D40400203C4A00004C4A0000CDCCCCCCB7
:1014F000D6040020544A0000D8040020644A0000AA
:1015000001210120FFF77EF8A84B1B889BB2A84A57
:10151000A2FB0323DB089BB2DBB23033DBB21846FD
:10152000FFF73CF8A14B1B889BB2DAB29F4B1B889C
:101530009BB29F49A1FB0313DB089BB2DBB21946A8
:101540004901C91A8900CB1A5B00DBB21344DBB234
:101550003033DBB21846FFF721F804210120FFF7F2
:1015600051F89448FFF736F801210220FFF74AF8B6
:101570009148FFF72FF86420FEF778FF8F4B1B6828
:10158000002B00F0FF818E4B1B889AB28D4B1B887D
:101590009BB213449AB28A4B1A80894B5B889AB2E9
:1015A000894B1B889BB213449AB2854B5A80844B5B
:1015B0009B889AB27D4B1B889BB213449AB2804B96
:1015C0009A807A4B1B889BB2184602F0D3FC0446E3
:1015D0000D467D4B1B889BB2184602F0CBFC4FF0AA
:1015E00000027A4B02F02CFD02460B4620462946AB
:1015F00002F074FB03460C4625461C46714B1B88C3
:101600009BB2184602F0B6FC4FF00002704B02F09D
:1016100017FD02460B462046294602F05FFB0346B3
:101620000C461846214602F03DFF0246694B1A60FF
:10163000FFF71EF86420FEF719FF664BD3ED007A22
:10164000FCEEE77AC7ED017ABB889AB2624B1A804A
:10165000604B93ED007A604B1B889BB207EE903A8B
:10166000F8EEE77A77EE677A9FED5C7A67EE877A35
:10167000FCEEE77AC7ED017ABB889AB2584B1A8024
:10168000554B1B889AB2574B1A80534B1B889BB201
:10169000632B04D8534B1B889BB2632B27D9524B27
:1016A0001B889BB25A1C91B24F4A11805BB21946FB
:1016B0000120FEF7A7FF484B1B889BB24B4AA2FBB9
:1016C00003235B099BB2DBB23033DBB21846FEF773
:1016D00065FF414B1B889BB2444AA2FB031252098F
:1016E000642101FB02F29B1A9AB23B4B1A803A4BDF
:1016F0001B889BB2092B04D83A4B1B889BB2092B41
:1017000028D9394B1B889BB25A1C91B2364A11809A
:101710005BB219460120FEF775FF2F4B1B889BB269
:10172000234AA2FB0323DB089BB2DBB23033DBB2DC
:101730001846FEF733FF284B1B889AB21C4BA3FBBD
:101740000213D9080B469B000B445B00D31A9AB2D4
:10175000214B1A80204B1B889BB2002B04D1214BBC
:101760001B889BB2002B19D01F4B1B889BB25A1CA5
:1017700091B21D4A11805BB219460120FEF742FF6B
:10178000154B1B889BB2DBB23033DBB21846FEF739
:1017900005FF114B1B88104B00221A80114B1B8830
:1017A0009BB2002B31D1104B1B8821E0D8040020C4
:1017B000CDCCCCCC644A00004C4A0000540600203A
:1017C00004060020D4040020D60400200000E03FDE
:1017D0000000D03F34060020380600200000C84238
:1017E0004006002078060020980000201F85EB515D
:1017F0009BB25A1C91B2AD4A11805BB219460120CE
:10180000FEF700FF3020FEF7C9FEA94B1B889BB2F4
:10181000002B5BD0A54B1B889BB25A1C91B2A34AEC
:1018200011805BB219460120FEF7ECFE2E20FEF778
:10183000B5FE9F4B1B889BB2092B28D99B4B1B885D
:101840009BB25A1C91B2994A11805BB21946012091
:10185000FEF7D8FE964B1B889BB2964AA2FB032349
:10186000DB089BB2DBB23033DBB21846FEF796FEE4
:101870008F4B1B889AB28F4BA3FB0213D9080B46E0
:101880009B000B445B00D31A9AB2894B1A80884B99
:101890001B889BB2002B19D0844B1B889BB25A1C0F
:1018A00091B2824A11805BB219460120FEF7AAFE6E
:1018B0007F4B1B889BB2DBB23033DBB21846FEF79E
:1018C0006DFE7B4B1B887A4B00221A80774B1B885E
:1018D0009BB202339AB2754B1A80744B1B889BB231
:1018E0005BB219460120FEF78DFE7348FEF772FECB
:1018F00001210220FEF786FE7048FEF76BFE704B5A
:1019000001221A806F4B1B889BB2184602F032FBF3
:1019100004460D466C4B1B889BB2184602F02AFB0E
:101920004FF00002694B02F08BFB02460B4620464B
:10193000294602F0D3F903460C4625461C46644B63
:101940001B889BB2184602F015FB4FF00002614B5A
:1019500002F076FB02460B462046294602F0BEF90D
:1019600003460C461846214602F09CFD02465A4B9F
:101970001A6040F2DC50FEF779FDFEF779FE574819
:10198000FEF728FE564B1B68002B51D1FEF770FE68
:101990005448FEF71FFE4FF47A70FEF767FD4C4B7C
:1019A00000221A80484B00221A80464B00221A80DF
:1019B0004D4B00221A803E4B00221A804B4B0022D6
:1019C0001A804B4B00221A804A4B00221A804A4B45
:1019D00000221A80404B4FF000021A60474B4FF034
:1019E00000021A60464B4FF000021A602F4B012292
:1019F0001A80FEF799FCFEF73BFE6420FEF736FDE9
:101A000003210120FEF7FEFD3E48FEF7E3FD042121
:101A10000220FEF7F7FD3C48FEF7DCFDFFF790F8EB
:101A2000FFF740FB6420FEF721FD254B00221A80C2
:101A3000234B1B889BB2012B7FF4FCAB334B1A6802
:101A4000334B1340002B03DA013B63F003030133F4
:101A50009AB2304B1A802F4B1B889BB2002B02D1BD
:101A60002C4B04221A802C4B1B6803F001032B4AD9
:101A70001360294B1B6803F00203294A1360264BAD
:101A80001B6803F00403274A1360234B1B6803F011
:101A90000803254A1360204B1B6803F01003234AF8
:101AA00013601D4B1B6803F0200341E098000020E9
:101AB00040060020CDCCCCCC704A0000744A000017
:101AC000EC040020D8040020D60400200000E03FF1
:101AD000D40400200000D03F34060020844A0000D7
:101AE00008070020944A00003806002078060020ED
:101AF000DA040020DC040020DE040020E0040020E2
:101B0000E4040020244A0000304A0000F0040020D1
:101B10000300008096000020FC43024020070020C4
:101B2000740600207006002054060020580600208D
:101B30002D4A13602D4B1B68002B00F04381FEF7EC
:101B400097FD6420FEF792FC294B1B889BB2013362
:101B50009AB2274B1A80274B1B889BB21A46244BFC
:101B60001B889BB2D31A002B18DA01210120FEF743
:101B700049FD2148FEF72EFD2048FEF72BFD0121EF
:101B80000220FEF73FFD1E48FEF724FD184B1B8880
:101B90009BB2013B9AB2164B1A8076E0144B1B881D
:101BA0009BB2092B32D801210120FEF72BFD104BEF
:101BB0001B889BB2DBB23033DBB21846FEF7EEFC7B
:101BC00003210120FEF71EFD0C48FEF703FD0D4B1F
:101BD00093ED007A0C4BD3ED007A77EE277A0A4B1F
:101BE000C3ED007A51E000BF44060020200700202A
:101BF000F4040020D4060020A44A0000A40600201B
:101C0000B04A00000C070020E00400200121012060
:101C1000FEF7F8FC984B1B889BB2984AA2FB032363
:101C2000DB089BB2DBB23033DBB21846FEF7B6FC02
:101C3000914B1B889BB2DAB28F4B1B889BB28F49AA
:101C4000A1FB0313DB089BB2DBB219464901C91A99
:101C50008900CB1A5B00DBB21344DBB23033DBB25A
:101C60001846FEF79BFC04210120FEF7CBFC8448BC
:101C7000FEF7B0FC834B93ED007A834BD3ED007AF3
:101C800077EE277A804BC3ED007A7F4B93ED007A95
:101C90007E4BD3ED007AB4EEE77AF1EE10FA40F322
:101CA0009180FEF7E5FC6420FEF7E0FB01210120B6
:101CB000FEF7A8FC7648FEF78DFC01210220FEF716
:101CC000A1FC7448FEF786FC40F2DC50FEF7CEFB28
:101CD000FEF7CEFC6420FEF7C9FB03210120FEF7CE
:101CE00091FC6D48FEF776FC04210220FEF78AFC89
:101CF0006A48FEF76FFC40F2DC50FEF7B7FB684B1A
:101D00001B889AB2674B1B889BB2D31A9AB2644B5A
:101D10001A80634B5B889AB2634B1B889BB2D31AC1
:101D20009AB25F4B5A805E4B9B889AB25F4B1B887E
:101D30009BB2D31A9AB25A4B9A805A4B00221A80FD
:101D4000594B00221A80594B00221A80584B00220E
:101D50001A80584B00221A80574B00221A80574B8A
:101D600000221A80564B00221A80564B00221A80FD
:101D7000464B4FF000021A60434B4FF000021A60CE
:101D8000514B4FF000021A60504B01221A80FEF7AF
:101D9000CBFAFEF76DFC6420FEF768FB03210120FF
:101DA000FEF730FC4A48FEF715FC04210220FEF73E
:101DB00029FC4848FEF70EFC6420FEF757FB464B13
:101DC00000221A80454B1B68002B00F06D81FEF746
:101DD0004FFC6420FEF74AFB274B5B889BB2013324
:101DE0009AB2254B5A803E4B5B889BB21A46224BD7
:101DF0005B889BB2D31A002B18DA01210120FEF771
:101E000001FC3848FEF7E6FB3748FEF7E3FB01210B
:101E10000220FEF7F7FB3548FEF7DCFB164B5B882C
:101E20009BB2013B9AB2144B5A80A0E0124B5B88E4
:101E30009BB2092B5CD801210120FEF7E3FB0E4B7E
:101E40005B889BB2DBB23033DBB21846FEF7A6FBF1
:101E500003210120FEF7D6FB2348FEF7BBFB094B0D
:101E600093ED017A084BD3ED007A77EE277A064B93
:101E7000C3ED007A7BE000BFF4040020CDCCCCCCD5
:101E8000A40600200C070020E004002034060020F7
:101E9000BC4A00004C4A0000C84A0000D44A000076
:101EA00004060020D4040020D6040020D80400201A
:101EB000380600204006002078060020DA040020C2
:101EC000DC040020DE040020E40400209800002050
:101ED000244A0000304A0000EC0400207406002070
:101EE000D4060020A44A0000AD060020B04A00003D
:101EF00001210120FEF786FB984B5B889BB2984A34
:101F0000A2FB0323DB089BB2DBB23033DBB2184603
:101F1000FEF744FB914B5B889BB2DAB28F4B5B8838
:101F20009BB28F49A1FB0313DB089BB2DBB21946BE
:101F30004901C91A8900CB1A5B00DBB21344DBB23A
:101F40003033DBB21846FEF729FB04210120FEF7EF
:101F500059FB8448FEF73EFB834B93ED017A834B9C
:101F6000D3ED007A77EE277A804BC3ED007A7F4B72
:101F700093ED007A7E4BD3ED007AB4EEE77AF1EE82
:101F800010FA40F39180FEF773FB6420FEF76EFABF
:101F900001210120FEF736FB7648FEF71BFB0121ED
:101FA0000220FEF72FFB7448FEF714FB40F2DC50D2
:101FB000FEF75CFAFEF75CFB6420FEF757FA03219C
:101FC0000120FEF71FFB6D48FEF704FB04210220F1
:101FD000FEF718FB6A48FEF7FDFA40F2DC50FEF708
:101FE00045FA684B1B889AB2674B1B889BB2D31A81
:101FF0009AB2644B1A80634B5B889AB2634B1B881E
:102000009BB2D31A9AB25F4B5A805E4B9B889AB2AE
:102010005F4B1B889BB2D31A9AB25A4B9A805A4B89
:1020200000221A80594B00221A80594B00221A8034
:10203000584B00221A80584B00221A80574B00221E
:102040001A80574B00221A80564B00221A80564B9A
:1020500000221A80464B4FF000021A60434B4FF0AB
:1020600000021A60514B4FF000021A60504B0122DF
:102070001A80FEF759F9FEF7FBFA6420FEF7F6F92D
:1020800003210120FEF7BEFA4A48FEF7A3FA042115
:102090000220FEF7B7FA4848FEF79CFA6420FEF7E4
:1020A000E5F9464B00221A80454B1B68002B00F0D7
:1020B0006D81FEF7DDFA6420FEF7D8F9274B9B8887
:1020C0009BB201339AB2254B9A803E4B9B889BB2C0
:1020D0001A46224B9B889BB2D31A002B18DA012197
:1020E0000120FEF78FFA3848FEF774FA3748FEF7FA
:1020F00071FA01210220FEF785FA3548FEF76AFAE7
:10210000164B9B889BB2013B9AB2144B9A80A0E07D
:10211000124B9B889BB2092B5CD801210120FEF752
:1021200071FA0E4B9B889BB2DBB23033DBB21846A0
:10213000FEF734FA03210120FEF764FA2348FEF784
:1021400049FA094B93ED027A084BD3ED007A77EE0A
:10215000277A064BC3ED007A7BE000BFF404002031
:10216000CDCCCCCCAD0600200C070020E004002034
:1021700034060020BC4A00004C4A0000C84A000057
:10218000D44A000004060020D4040020D604002015
:10219000D8040020380600204006002078060020E1
:1021A000DA040020DC040020DE040020E404002027
:1021B00098000020244A0000304A0000EC0400206F
:1021C00070060020D4060020A44A0000B6060020B5
:1021D000B04A000001210120FEF714FA984B9B88B9
:1021E0009BB2984AA2FB0323DB089BB2DBB23033DD
:1021F000DBB21846FEF7D2F9914B9B889BB2DAB25C
:102200008F4B9B889BB28F49A1FB0313DB089BB2CA
:10221000DBB219464901C91A8900CB1A5B00DBB24F
:102220001344DBB23033DBB21846FEF7B7F90421B2
:102230000120FEF7E7F98448FEF7CCF9834B93EDD4
:10224000027A834BD3ED007A77EE277A804BC3ED89
:10225000007A7F4B93ED007A7E4BD3ED007AB4EE9B
:10226000E77AF1EE10FA40F39180FEF701FA64206C
:10227000FEF7FCF801210120FEF7C4F97648FEF7CD
:10228000A9F901210220FEF7BDF97448FEF7A2F971
:1022900040F2DC50FEF7EAF8FEF7EAF96420FEF7B8
:1022A000E5F803210120FEF7ADF96D48FEF792F93C
:1022B00004210220FEF7A6F96A48FEF78BF940F2E6
:1022C000DC50FEF7D3F8684B1B889AB2674B1B882B
:1022D0009BB2D31A9AB2644B1A80634B5B889AB252
:1022E000634B1B889BB2D31A9AB25F4B5A805E4BEA
:1022F0009B889AB25F4B1B889BB2D31A9AB25A4BF7
:102300009A805A4B00221A80594B00221A80594B4E
:1023100000221A80584B00221A80584B00221A8043
:10232000574B00221A80574B00221A80564B00222E
:102330001A80564B00221A80464B4FF000021A605A
:10234000434B4FF000021A60514B4FF000021A60ED
:10235000504B01221A80FDF7E7FFFEF789F9642050
:10236000FEF784F803210120FEF74CF94A48FEF7F6
:1023700031F904210220FEF745F94848FEF72AF911
:102380006420FEF773F8464B00221A80454B1B6809
:10239000002B00F06D81FEF76BF96420FEF766F804
:1023A000274BDB889BB201339AB2254BDA803E4B38
:1023B000DB889BB21A46224BDB889BB2D31A002BD8
:1023C00018DA01210120FEF71DF93848FEF702F95D
:1023D0003748FEF7FFF801210220FEF713F93548D0
:1023E000FEF7F8F8164BDB889BB2013B9AB2144B10
:1023F000DA80A0E0124BDB889BB2092B5CD801216C
:102400000120FEF7FFF80E4BDB889BB2DBB23033C6
:10241000DBB21846FEF7C2F803210120FEF7F2F8FE
:102420002348FEF7D7F8094B93ED037A084BD3ED19
:10243000007A77EE277A064BC3ED007A7BE000BF87
:10244000F4040020CDCCCCCCB60600200C07002034
:10245000E004002034060020BC4A00004C4A000082
:10246000C84A0000D44A000004060020D40400201A
:10247000D6040020D80400203806002040060020A2
:1024800078060020DA040020DC040020DE040020AE
:10249000E404002098000020244A0000304A000094
:1024A000EC04002054060020D4060020E04A00007E
:1024B000BF060020B04A000001210120FEF7A2F86B
:1024C000984BDB889BB2984AA2FB0323DB089BB2A4
:1024D000DBB23033DBB21846FEF760F8914BDB8895
:1024E0009BB2DAB28F4BDB889BB28F49A1FB0313FF
:1024F000DB089BB2DBB219464901C91A8900CB1A25
:102500005B00DBB21344DBB23033DBB21846FEF7BC
:1025100045F804210120FEF775F88448FEF75AF8C3
:10252000834B93ED037A834BD3ED007A77EE277AD2
:10253000804BC3ED007A7F4B93ED007A7E4BD3ED59
:10254000007AB4EEE77AF1EE10FA40F39180FEF7EC
:102550008FF86420FDF78AFF01210120FEF752F871
:102560007648FEF737F801210220FEF74BF8744851
:10257000FEF730F840F2DC50FDF778FFFEF778F810
:102580006420FDF773FF03210120FEF73BF86D483F
:10259000FEF720F804210220FEF734F86A48FEF71F
:1025A00019F840F2DC50FDF761FF684B1B889AB2C6
:1025B000674B1B889BB2D31A9AB2644B1A80634B49
:1025C0005B889AB2634B1B889BB2D31A9AB25F4B5B
:1025D0005A805E4B9B889AB25F4B1B889BB2D31A82
:1025E0009AB25A4B9A805A4B00221A80594B0022B9
:1025F0001A80594B00221A80584B00221A80584BDF
:1026000000221A80574B00221A80574B00221A8052
:10261000564B00221A80564B00221A80464B4FF030
:1026200000021A60434B4FF000021A60514B4FF00A
:1026300000021A60504B01221A80FDF775FEFEF76A
:1026400017F86420FDF712FF03210120FDF7DAFFE0
:102650004A48FDF7BFFF04210220FDF7D3FF484899
:10266000FDF7B8FF6420FDF701FF464B00221A80FA
:10267000454B1B68002B00F06D81FDF7F9FF6420CE
:10268000FDF7F4FE274B1B899BB201339AB2254B11
:102690001A813E4B1B899BB21A46224B1B899BB267
:1026A000D31A002B18DA01210120FDF7ABFF3848BF
:1026B000FDF790FF3748FDF78DFF01210220FDF760
:1026C000A1FF3548FDF786FF164B1B899BB2013BE6
:1026D0009AB2144B1A81A0E0124B1B899BB2092BB2
:1026E0005CD801210120FDF78DFF0E4B1B899BB2A9
:1026F000DBB23033DBB21846FDF750FF0321012077
:10270000FDF780FF2348FDF765FF094B93ED047A41
:10271000084BD3ED007A77EE277A064BC3ED007AAB
:102720007BE000BFF4040020CDCCCCCCBF06002061
:102730000C070020E004002034060020BC4A000002
:102740004C4A0000C84A0000D44A00000406002099
:10275000D4040020D6040020D8040020380600202D
:102760004006002078060020DA040020DC04002067
:10277000DE040020E404002098000020244A000029
:10278000304A0000EC04002058060020D406002047
:10279000E04A0000C8060020B04A000001210120E4
:1027A000FDF730FFAF4B1B899BB2AF4AA2FB03235F
:1027B000DB089BB2DBB23033DBB21846FDF7EEFE2E
:1027C000A84B1B899BB2DAB2A64B1B899BB2A649C8
:1027D000A1FB0313DB089BB2DBB219464901C91AFE
:1027E0008900CB1A5B00DBB21344DBB23033DBB2BF
:1027F0001846FDF7D3FE04210120FDF703FF9B4897
:10280000FDF7E8FE9A4B93ED047A9A4BD3ED007AEC
:1028100077EE277A974BC3ED007A964B93ED007ACB
:10282000954BD3ED007AB4EEE77AF1EE10FA40F36F
:102830009180FDF71DFF6420FDF718FE01210120A6
:10284000FDF7E0FE8D48FDF7C5FE01210220FDF7F2
:10285000D9FE8B48FDF7BEFE40F2DC50FDF706FEC8
:10286000FDF706FF6420FDF701FE03210120FDF7BF
:10287000C9FE8448FDF7AEFE04210220FDF7C2FE2A
:102880008148FDF7A7FE40F2DC50FDF7EFFD7F4BDE
:102890001B889AB27E4B1B889BB2D31A9AB27B4B91
:1028A0001A807A4B5B889AB27A4B1B889BB2D31AF8
:1028B0009AB2764B5A80754B9B889AB2764B1B889E
:1028C0009BB2D31A9AB2714B9A80714B00221A8034
:1028D000704B00221A80704B00221A806F4B00222E
:1028E0001A806F4B00221A806E4B00221A806E4BAA
:1028F00000221A806D4B00221A806D4B00221A8034
:102900005D4B4FF000021A605A4B4FF000021A6004
:10291000684B4FF000021A60674B01221A80FDF7E6
:1029200003FDFDF7A5FE6420FDF7A0FD03210120B6
:10293000FDF768FE6148FDF74DFE04210220FDF71A
:1029400061FE5F48FDF746FE6420FDF78FFD5D4B9D
:1029500000221A805C4B1B68002B00F07C84FDF782
:1029600087FE6420FDF782FD01210120FDF74AFE6C
:102970005648FDF72FFE534B02221A804FF47A700F
:10298000FDF774FDFDF774FE08210120FDF73AFE06
:102990004F4B1B889BB2DBB23033DBB21846FDF7DE
:1029A000FDFD01210220FDF72DFE4A48FDF712FE34
:1029B000474B1B889BB2022B40F0B680464A464BE1
:1029C0001B6843F002031360304B1B889AB2304BF4
:1029D0001B889BB2D31A9AB22C4B1A802B4B5B8864
:1029E0009AB22C4B1B889BB2D31A9AB2274B5A80AF
:1029F000264B9B889AB2284B1B889BB2D31A9AB25B
:102A0000224B9A80224B00221A80224B00221A80ED
:102A1000214B00221A80214B00221A80204B0022D9
:102A20001A80204B00221A801F4B00221A801F4B55
:102A300000221A801E4B00221A800F4B4FF000021A
:102A40001A600C4B4FF000021A601A4B4FF0000254
:102A50001A60194B01221A80FDF766FC4FF4FA60E8
:102A60003CE000BFF4040020CDCCCCCCBF0600205D
:102A70000C070020E004002034060020BC4A0000BF
:102A80004C4A0000C84A0000D44A00000406002056
:102A9000D4040020D6040020D804002038060020EA
:102AA0004006002078060020DA040020DC04002024
:102AB000DE040020E404002098000020244A0000E6
:102AC000304A0000EC04002044060020E84A0000E0
:102AD00096000020F84A0000FC530240FDF7C6FCB7
:102AE000FDF7C6FD6420FDF7C1FC03210120FDF7C1
:102AF00089FD9448FDF76EFD04210220FDF782FD5B
:102B00009148FDF767FD914A904B1B6823F0020343
:102B10001360FEF715F8FEF7C5FA6420FDF7A6FC72
:102B20008B4B00221A8096E38A4B1B889BB2012BA9
:102B30000AD0884B1B889BB2032B05D0854B1B8882
:102B40009BB2042B40F08783804A804B1B6843F084
:102B5000080313604FF42F70FDF788FC7E4B93ED54
:102B6000007A7E4BD3ED007A77EE677A7C4BC3ED2B
:102B7000007A7B4BD3ED007AB7EE007AF4EEC77A99
:102B8000F1EE10FA37DB774B9B889BB2002B32D0EB
:102B9000734BD3ED007AFCEEE77AC7ED017ABB8880
:102BA0009AB2714B1A806F4B9B889AB26E4B1B88FE
:102BB0009BB29A420BD36A4BD3ED007AFCEEE77AD4
:102BC000C7ED017ABB889AB2674B1A8004E0654B67
:102BD0009B889AB2644B1A80614B93ED007A624BEA
:102BE0001B889BB207EE903AF8EEE77A77EE677AA9
:102BF0005B4BC3ED007A5A4BD3ED007AB6EE007A08
:102C0000F4EEC77AF1EE10FA5BDB564B5B889BB2B1
:102C1000002B56D0524B1B68184601F0BDF94FF0FF
:102C20000002524B01F036FB03460C461846214683
:102C300001F018FC03469AB24D4B1A80494B5B8851
:102C40009AB24B4B1B889BB29A4214D3444B1B68DD
:102C5000184601F0A1F94FF00002444B01F01AFBB5
:102C600003460C461846214601F0FCFB03469AB287
:102C70003F4B1A8004E03B4B5B889AB23C4B1A8076
:102C8000374B1B68184601F087F904460D46384B50
:102C90001B889BB2184601F06DF94FF00002334BD0
:102CA00001F0CEF902460B462046294601F014F801
:102CB00003460C461846214601F0F4FB0246284B19
:102CC0001A60274BD3ED007AB5EE007AF4EEC77A9E
:102CD000F1EE10FA78DB234B1B889BB2002B73D0EC
:102CE0001F4B1B68184601F057F94FF00002214BAB
:102CF00001F0D0FA03460C461846214601F0B2FB1B
:102D000003469AB21C4B1A80164B1B889AB21A4B78
:102D10001B889BB29A4231D3114B1B68184601F0B5
:102D20003BF94FF00002134B01F0B4FA03460C4696
:102D30001846214601F096FB03469AB20E4B1A80C4
:102D400021E000BF244A0000304A0000FC5302404A
:102D5000EC0400209600002034060020E00400204F
:102D6000E404002004060020DE0400200000E03F10
:102D7000DC0400200000D03FDA040020924B1B88C6
:102D80009AB2924B1A80924B1B68184601F004F9D4
:102D900004460D468D4B1B889BB2184601F0EAF89D
:102DA0004FF000028B4B01F04BF902460B462046D8
:102DB000294600F091FF03460C461846214601F0D3
:102DC00071FB0246824B1A60814BD3ED007AF5EE1F
:102DD000407AF1EE10FA40F0DD81FDF76FFAFDF771
:102DE00047FC7D48FDF7F6FB01210220FDF70AFCB8
:102DF0007A48FDF7EFFB4FF42F70FDF737FBFDF737
:102E000037FC774B1B889BB2092B18D8082101206F
:102E1000FDF7F8FB724B1B889BB2DBB23033DBB2A1
:102E20001846FDF7BBFB03210220FDF7EBFB6D48C5
:102E3000FDF7D0FB4FF42F70FDF718FB37E00721AB
:102E40000120FDF7DFFB664B1B889BB2664AA2FBA5
:102E50000323DB089BB2DBB23033DBB21846FDF74D
:102E60009DFB5F4B1B889BB2DAB25D4B1B889BB20C
:102E70005D49A1FB0313DB089BB2DBB21946490194
:102E8000C91A8900CB1A5B00DBB21344DBB23033C2
:102E9000DBB21846FDF782FB03210220FDF7B2FBEF
:102EA0005048FDF797FB4FF42F70FDF7DFFA464BC4
:102EB0009B889AB24A4B1B889BB2D31A9AB2424B58
:102EC0009A80FDF7D5FB494B1B889BB2092B18D87C
:102ED00008210120FDF796FB444B1B889BB2DBB217
:102EE0003033DBB21846FDF759FB02210220FDF713
:102EF00089FB3F48FDF76EFB4FF42F70FDF7B6FAE4
:102F000037E007210120FDF77DFB384B1B889BB282
:102F1000354AA2FB0323DB089BB2DBB23033DBB2C2
:102F20001846FDF73BFB314B1B889BB2DAB22F4BA7
:102F30001B889BB22C49A1FB0313DB089BB2DBB2BD
:102F400019464901C91A8900CB1A5B00DBB2134448
:102F5000DBB23033DBB21846FDF720FB0321022041
:102F6000FDF750FB2248FDF735FB4FF42F70FDF7BE
:102F70007DFA154B5B889AB21C4B1B889BB2D31A07
:102F80009AB2114B5A80FDF773FB104B1B889BB212
:102F9000092B31D808210120FDF734FB0B4B1B888E
:102FA0009BB2DBB23033DBB21846FDF7F7FA0221F1
:102FB0000220FDF727FB0F48FDF70CFB4FF42F70A5
:102FC000FDF754FA50E000BF04060020DA040020A8
:102FD000E40400200000D03F084B0000144B000028
:102FE000DE040020644A0000CDCCCCCCDC04002000
:102FF000544A00003C4A000007210120FDF702FB73
:103000004E4B1B889BB24E4AA2FB0323DB089BB2AC
:10301000DBB23033DBB21846FDF7C0FA474B1B88F2
:103020009BB2DAB2454B1B889BB24549A1FB031307
:10303000DB089BB2DBB219464901C91A8900CB1AD9
:103040005B00DBB21344DBB23033DBB21846FDF772
:10305000A5FA03210220FDF7D5FA3A48FDF7BAFA9E
:103060004FF42F70FDF702FA374B1B889AB2334B9F
:103070001B889BB2D31A9AB2334B1A80FDF7F8FA29
:103080003248FDF7A7FA04210220FDF7BBFA3048C9
:10309000FDF7A0FA40F2DC50FDF7E8F92D4B0022D5
:1030A0001A802D4B00221A802C4B00221A802C4BA8
:1030B00000221A802B4B00221A802B4B00221A80F0
:1030C0001E4B00221A80294B00221A80284B002216
:1030D0001A80284B4FF000021A60274B4FF0000275
:1030E0001A60264B4FF000021A60254B01221A800D
:1030F000FDF71AF9FDF7BCFA6420FDF7B7F90321D3
:103100000120FDF77FFA1F48FDF764FA0421022031
:10311000FDF778FA1C48FDF75DFAFDF711FDFDF7A4
:10312000C1FF1A4A194B1B6823F00803136064207F
:10313000FDF79CF9164B00221A808CE0DA0400207F
:10314000CDCCCCCC3C4A000004060020244B00002F
:10315000344B0000D4040020D6040020D804002002
:10316000380600204006002078060020DC040020FD
:10317000DE04002034060020E0040020E4040020E7
:1031800098000020244A0000304A0000FC5302400E
:10319000EC040020FDF792F8FDF7D2FCFDF782FF6A
:1031A000FDF766FA6748FDF715FA01210220FDF7E1
:1031B00029FA6548FDF70EFA4FF4FA60FDF756F963
:1031C000624B00221A80624B00221A80614B00225F
:1031D0001A80614B00221A80604B00221A80604BDB
:1031E00000221A805F4B00221A805F4B00221A8057
:1031F0005E4B00221A805E4B4FF000021A605D4B5E
:103200004FF000021A605C4B4FF000021A605B4BFB
:1032100001221A80FDF788F8FDF72AFA6420FDF7ED
:1032200025F903210120FDF7EDF95548FDF7D2F905
:1032300004210220FDF7E6F95248FDF7CBF9524A86
:10324000514B1B6823F0080313606420FDF70EF94F
:103250004E4B00221A804E4B1B68002B7DF4EAAFC8
:10326000FDF706FA4B48FDF7B5F94FF47A70FDF714
:10327000FDF8494B1B889AB2344B1B889BB2D31A7A
:103280009AB2454B1A80444B5B889AB2304B1B88EC
:103290009BB2D31A9AB2404B5A803F4B9B889AB24A
:1032A0002C4B1B889BB2D31A9AB23B4B9A80274B6C
:1032B00000221A80264B00221A80264B00221A80F8
:1032C000254B00221A80254B00221A80244B002215
:1032D0001A80244B00221A80234B00221A80234B91
:1032E00000221A80224B4FF000021A60214B4FF04F
:1032F00000021A60204B4FF000021A601F4B01229F
:103300001A80FDF711F8FDF7B3F96420FDF7AEF868
:1033100003210120FDF776F91948FDF75BF9042137
:103320000220FDF76FF91748FDF754F9FDF708FC87
:10333000FDF7B8FE6420FDF799F8144B00221A80BF
:10334000FDF778BF404B0000504B0000D404002034
:10335000D6040020D80400203806002040060020B3
:1033600078060020DA040020DC040020DE040020BF
:1033700034060020E0040020E4040020980000202F
:10338000244A0000304A0000FC530240EC040020B4
:1033900008070020944A00000406002080B582B08F
:1033A00000AF134B7B60134B3B6007E03B681A1D7B
:1033B0003A607A68111D796012681A603B680E4A9B
:1033C0009342F3D30E480F494FF000028842B8BF32
:1033D00040F8042BFADB094A084B1B6843F47003DE
:1033E0001360FDF7E7FE00BF0837BD4680BD00BF94
:1033F000E04D000000000020D404002088ED00E033
:10340000D40400202407002080B400AFFEE700BFF2
:1034100080B400AFFEE700BF80B400AFFEE700BF9E
:1034200080B584B000AFF860B9607A60154AFB6877
:1034300052F82330184600F04FFB034683F0010397
:10344000DBB2002B19D1104AFB6852F823300F4A27
:1034500013600C4AFB6852F82330184600F04FFB0B
:103460000A4B18686023BA68796800F008FC074BBB
:103470001B68184600F0EAFB00E000BF1037BD46AD
:1034800080BD00BF904B0000844B00000006002070
:1034900080B584B000AF786039600023FB601AE02B
:1034A0007A68FB68134493F900300A2B05D10E4B60
:1034B0001B680D21184600F006FC0B4B18687A6853
:1034C000FB68134493F90030DBB2194600F0FBFBB4
:1034D000FB680133FB60FA683B689A42E0D3FB6803
:1034E00018461037BD4680BD0006002090B58FB04D
:1034F00000AF78603960E8E100237B6302E07B6B1A
:1035000001337B637A687B6B134493F90030252B7E
:1035100006D07A687B6B134493F90030002BEED110
:10352000796B7868FFF7B4FF7A687B6B13447B6034
:103530007B6893F90030252B40F0C7817B6801330D
:103540007B600023FB62202387F823307B685A1CB2
:103550007A6093F90030253B532B00F2B18101A230
:1035600052F823F0B3380000C1380000C138000021
:10357000C1380000C1380000C1380000C138000067
:10358000C1380000C1380000C1380000C138000057
:10359000B5360000B5360000B5360000B53600007F
:1035A000B5360000B5360000B5360000B53600006F
:1035B000B5360000B5360000C1380000C138000043
:1035C000C1380000C1380000C1380000C138000017
:1035D000C1380000C1380000C1380000C138000007
:1035E000C1380000C1380000C1380000C1380000F7
:1035F000C1380000C1380000C1380000C1380000E7
:10360000C1380000C1380000C1380000C1380000D6
:10361000C1380000C1380000C1380000C1380000C6
:10362000C1380000C1380000C1380000C1380000B6
:103630009B370000C1380000C1380000C1380000CD
:10364000C1380000C1380000C1380000C138000096
:10365000C1380000C1380000C1380000ED3600005C
:1036600005370000C1380000C1380000C138000033
:10367000C138000005370000C1380000C138000023
:10368000C1380000C1380000C1380000C138000056
:103690009B370000C1380000C13800002F37000000
:1036A000C138000083370000C1380000C138000075
:1036B0009B3700007B68013B93F90030302B05D12C
:1036C000FB6A002B02D1302387F82330FA6A1346B5
:1036D0009B0013445B00FB627B68013B93F9003065
:1036E0001A46FB6A1344303BFB622FE73B681A1D06
:1036F0003A601B68BB6107F1180301211846FFF708
:10370000C7FEE2E03B681A1D3A601B68BB610023FC
:103710003B63BB69002B05DABB695B42BB610123DC
:103720007B6201E000237B620A23BB6240E03B68CE
:103730001A1D3A601B68FB6100237B6302E07B6B10
:1037400001337B63FA697B6B134493F90030002BE0
:10375000F5D1796BF869FFF79BFEFA6A7B6B9A42A9
:1037600040F2B380FA6A7B6BD31AFB6203E001215B
:103770005B48FFF78DFEFB6A5A1EFA62002BF6D1FA
:10378000A3E03B681A1D3A601B68BB6100233B63E2
:103790000A23BB6200237B620AE03B681A1D3A6081
:1037A0001B68BB6100233B631023BB6200237B6269
:1037B00001237B6307E07B6BBA6A02FB03F37B6345
:1037C000FB6A013BFB627B6BBA6A02FB03F2BB69DB
:1037D0009A4209D87B6BBA6A02FB03F2BB6AB2FB5E
:1037E000F3F27B6B9A42E6D07B6A002B02D0FB6A35
:1037F000013BFB627B6A002B0ED097F92330302B04
:103800000AD13B6B5A1C3A6307F1380213442D224C
:1038100003F8302C00237B62FB6A012B16D9FB6A6C
:103820000F2B13D8FB6A013BFB620CE03B6B5A1C6D
:103830003A6307F13802134497F8232003F8302C39
:10384000FB6A013BFB62FB6A002BEFD17B6A002B1A
:1038500025D03B6B5A1C3A6307F1380213442D22E2
:1038600003F8302C1BE03B6B5A1C3A631D4CB969C2
:103870007A6BB1FBF2F2B96AB2FBF1F1B86A00FB04
:1038800001F1521A224492F9002007F138010B4449
:1038900003F8302C7A6BBB6AB2FBF3F37B637B6B70
:1038A000002BE0D107F10803396B1846FFF7F0FD54
:1038B0000BE07B68013B01211846FFF7E9FD04E0BE
:1038C00005210948FFF7E4FD00BF7B6893F900304C
:1038D000002B7FF411AE00BF3C37BD4690BD00BF4A
:1038E000784B00005C4B00007C4B00000FB480B5AF
:1038F00082B000AF07F114037B6079683869FFF785
:10390000F5FD00BF0837BD46BDE8804004B07047F4
:10391000D0F8003412F0010F10B500F5806414BF28
:103920000B438B43236012F0020FD0F8202400F5E4
:10393000846314BF114322EA0101196010BDF0B580
:10394000C2F34116002441FA04F5ED0711D5D0F871
:10395000C47F65004FF0030C0CFA05FC27EA0C0746
:10396000C0F8C47FD0F8C47F06FA05F53D43C0F81F
:10397000C45F0134082CE6D1D0F8004512F0010FE5
:1039800000F5A06514BF0C438C432C60D0F80445AF
:1039900012F0020F00F2045514BF0C438C432C604C
:1039A000D0F8084512F0040F00F5A16514BF0C43D0
:1039B0008C432C60D0F8184512F0080F00F5A36571
:1039C00014BF0C438C432C6012F0100FD0F83C2530
:1039D00000F23C5414BF0A438A432260D0F80C25FD
:1039E00013F0010F00F20C5414BF0A438A43226003
:1039F000D0F8102513F0020F00F5A26414BF0A439B
:103A00008A432260D0F8142513F0040F00F21454F6
:103A100014BF0A438A432260D0F81C2513F0080F14
:103A200000F21C5414BF0A438A432260D0F8442594
:103A300013F4007F00F2445414BF0A438A43226007
:103A4000D0F8402513F4407F00F5A86414BF0A4362
:103A50008A43226000F5A5621BB9D0F8280501430E
:103A600003E0D0F8283523EA01011160F0BD70B5FC
:103A7000022205460C46FFF74BFF2846214601224D
:103A80000823BDE87040FFF75ABF0000104BC0F399
:103A9000074210B501211C680E4B01FA02F12142C8
:103AA0004FEA420218BF01320F2153F82230C0F30F
:103AB0000722D3F82C4501FA02F100F00F0024EAA6
:103AC000010100FA02F21143C3F82C1510BD00BF2A
:103AD0006CE00F409C4B0000C3B2C0F3072099007C
:103AE00000F57E2341F0844203F5407121F470001B
:103AF00042EA40121368181C18BF01207047C3B275
:103B0000C0F30720990000F57E2341F0844203F5BD
:103B1000C06121F4700042EA401201231360704733
:103B20003F4B19681A69002AB4BF02F0700301F014
:103B30003003202B70B515D004D853B1102B6DD1A4
:103B4000384B10E0302B0AD0702B67D14FF4004374
:103B500009E0C1F38410344B53F8203003E047F2FE
:103B6000305300E0314B002A02DA12F4006F01E01A
:103B700011F4006F32D12E4D2C686D6805F01F06D0
:103B8000701C4600C5F3042001307043B3FBF0F015
:103B9000A305C4F3892444439B0DA40A03FB0043FB
:103BA0002448006800F47040B0F5804F41F4800173
:103BB00010D007D8B0F5005F13D0B0F5405F0DD13D
:103BC0001D480FE0B0F5E04F06D0B0F5104F05D11D
:103BD0001A4807E01A4805E01A4803E04FF0FF30A2
:103BE00000E0194811F4800F14D0002A0DDA5100BA
:103BF00005D5110503D45B00C2F3865201E0C2F380
:103C0000C552511CB3FBF1F304E0C1F3C352511C84
:103C1000B3FBF1F3834238BF184670BD002070BD7E
:103C200060E00F400024F4002C4C000000093D002F
:103C300060E10F4010E00F4080F0FA02002D3101EA
:103C4000005A620240787D0100B4C404C36A43F0A4
:103C50001001C162026B42F4407343F00101016341
:103C6000704783691B07FCD4C16A21F01002C2624D
:103C7000036B23F4407121F0010202637047F8B531
:103C800004460E4615461F46FFF7EBFFB6EB051F31
:103C9000236B04D243F0200121636D0802E023F07E
:103CA00020002063F600B6FBF5F2551CEB0900205E
:103CB000C5F345056362A562E762A0612046BDE8E1
:103CC000F840FFF7C3BF83699A06FCD401607047D0
:103CD00081F0004102E000BF83F0004330B54FEABD
:103CE00041044FEA430594EA050F08BF90EA020F2A
:103CF0001FBF54EA000C55EA020C7FEA645C7FEABD
:103D0000655C00F0E2804FEA5454D4EB5555B8BFDF
:103D10006D420CDD2C4480EA020281EA030382EA50
:103D2000000083EA010180EA020281EA0303362DE2
:103D300088BF30BD11F0004F4FEA01314FF4801CB5
:103D40004CEA113102D0404261EB410113F0004FC7
:103D50004FEA03334CEA133302D0524263EB43037E
:103D600094EA050F00F0A780A4F10104D5F1200E1C
:103D70000DDB02FA0EFC22FA05F2801841F1000177
:103D800003FA0EF2801843FA05F359410EE0A5F14B
:103D900020050EF1200E012A03FA0EFC28BF4CF07C
:103DA000020C43FA05F3C01851EBE37101F0004532
:103DB00007D54FF0000EDCF1000C7EEB00006EEB3F
:103DC0000101B1F5801F1BD3B1F5001F0CD34908C9
:103DD0005FEA30004FEA3C0C04F101044FEA445220
:103DE00012F5800F80F09A80BCF1004F08BF5FEAA7
:103DF000500C50F1000041EB045141EA050130BD87
:103E00005FEA4C0C404141EB010111F4801FA4F129
:103E10000104E9D191F0000F04BF01460020B1FA7E
:103E200081F308BF2033A3F10B03B3F120020CDAB6
:103E30000C3208DD02F1140CC2F10C0201FA0CF094
:103E400021FA02F10CE002F11402D8BFC2F1200CF9
:103E500001FA02F120FA0CFCDCBF41EA0C019040AF
:103E6000E41AA2BF01EB0451294330BD6FEA0404F8
:103E70001F3C1CDA0C340EDC04F11404C4F12002E3
:103E800020FA04F001FA02F340EA030021FA04F3F5
:103E900045EA030130BDC4F10C04C4F1200220FA4C
:103EA00002F001FA04F340EA0300294630BD21FA8A
:103EB00004F0294630BD94F0000F83F4801306BF50
:103EC00081F480110134013D4EE77FEA645C18BF44
:103ED0007FEA655C29D094EA050F08BF90EA020FDB
:103EE00005D054EA000C04BF1946104630BD91EAD3
:103EF000030F1EBF0021002030BD5FEA545C05D1D6
:103F00004000494128BF41F0004130BD14F5800414
:103F10003CBF01F5801130BD01F0004545F0FE4188
:103F200041F470014FF0000030BD7FEA645C1ABFBD
:103F3000194610467FEA655C1CBF0B46024650EAF4
:103F4000013406BF52EA033591EA030F41F4002120
:103F500030BD00BF90F0000F04BF0021704730B5A6
:103F60004FF4806404F132044FF000054FF000017B
:103F700050E700BF90F0000F04BF0021704730B53C
:103F80004FF4806404F1320410F0004548BF404211
:103F90004FF000013EE700BF42004FEAE2014FEA66
:103FA00031014FEA02701FBF12F07F4393F07F4F41
:103FB00081F06051704792F0000F14BF93F07F4F73
:103FC000704730B54FF4607401F0004521F00041B6
:103FD00020E700BF50EA010208BF704730B54FF03C
:103FE00000050AE050EA010208BF704730B511F041
:103FF000004502D5404261EB41014FF4806404F179
:1040000032045FEA915C3FF4DCAE4FF003025FEAFA
:10401000DC0C18BF03325FEADC0C18BF033202EB82
:10402000DC02C2F1200300FA03FC20FA02F001FADC
:1040300003FE40EA0E0021FA02F11444C1E600BF7B
:1040400070B54FF0FF0C4CF4E06C1CEA11541DBF2E
:104050001CEA135594EA0C0F95EA0C0F00F0DEF8F9
:104060002C4481EA030621EA4C5123EA4C5350EADE
:10407000013518BF52EA033541F4801143F480132F
:1040800038D0A0FB02CE4FF00005E1FB02E506F0C0
:104090000042E0FB03E54FF00006E1FB03569CF015
:1040A000000F18BF4EF0010EA4F1FF04B6F5007F1B
:1040B00064F5407404D25FEA4E0E6D4146EB06068D
:1040C00042EAC62141EA55514FEAC52040EA5E5016
:1040D0004FEACE2EB4F1FD0C88BFBCF5E06F1ED8C0
:1040E000BEF1004F08BF5FEA500E50F1000041EBF7
:1040F000045170BD06F0004646EA010140EA0200A4
:1041000081EA0301B4EB5C04C2BFD4EB0C0541EAC5
:10411000045170BD41F480114FF0000E013C00F3DA
:10412000AB8014F1360FDEBF002001F0004170BDFE
:10413000C4F10004203C35DA0C341BDC04F1140417
:10414000C4F1200500FA05F320FA04F001FA05F2A3
:1041500040EA020001F0004221F0004110EBD37070
:1041600021FA04F642EB06015EEA430E08BF20EA9C
:10417000D37070BDC4F10C04C4F1200500FA04F33F
:1041800020FA05F001FA04F240EA020001F00041D1
:1041900010EBD37041F100015EEA430E08BF20EA44
:1041A000D37070BDC4F1200500FA05F24EEA020E8C
:1041B00020FA04F301FA05F243EA020321FA04F0BB
:1041C00001F0004121FA04F220EA020000EBD37072
:1041D0005EEA430E08BF20EAD37070BD94F0000F72
:1041E0000FD101F00046400041EB010111F4801FA6
:1041F00008BF013CF7D041EA060195F0000F18BF57
:10420000704703F00046520043EB030313F4801F92
:1042100008BF013DF7D043EA0603704794EA0C0F4C
:104220000CEA135518BF95EA0C0F0CD050EA410662
:1042300018BF52EA4306D1D181EA030101F00041DF
:104240004FF0000070BD50EA410606BF1046194607
:1042500052EA430619D094EA0C0F02D150EA013613
:1042600013D195EA0C0F05D152EA03361CBF104654
:1042700019460AD181EA030101F0004141F0FE41F3
:1042800041F470014FF0000070BD41F0FE4141F477
:10429000780170BD70B54FF0FF0C4CF4E06C1CEA77
:1042A00011541DBF1CEA135594EA0C0F95EA0C0F2C
:1042B00000F0A7F8A4EB050481EA030E52EA0335E7
:1042C0004FEA013100F088804FEA03334FF0805508
:1042D00045EA131343EA12634FEA022245EA111535
:1042E00045EA10654FEA00260EF000419D4208BFE6
:1042F000964244F1FD0404F5407402D25B084FEA93
:104300003202B61A65EB03055B084FEA32024FF43E
:1043100080104FF4002CB6EB020E75EB030E22BF9B
:10432000B61A754640EA0C005B084FEA3202B6EB5B
:10433000020E75EB030E22BFB61A754640EA5C000A
:104340005B084FEA3202B6EB020E75EB030E22BF9A
:10435000B61A754640EA9C005B084FEA3202B6EB9B
:10436000020E75EB030E22BFB61A754640EADC005A
:1043700055EA060E18D04FEA051545EA16754FEABC
:1043800006164FEAC30343EA52734FEAC2025FEADA
:104390001C1CC0D111F4801F0BD141EA00014FF069
:1043A00000004FF0004CB6E711F4801F04BF01433A
:1043B0000020B4F1FD0C88BFBCF5E06F3FF6AFAE56
:1043C000B5EB030C04BFB6EB020C5FEA500C50F1E6
:1043D000000041EB045170BD0EF0004E4EEA113169
:1043E00014EB5C04C2BFD4EB0C0541EA045170BD70
:1043F00041F480114FF0000E013C90E645EA060EB4
:104400008DE60CEA135594EA0C0F08BF95EA0C0FE1
:104410003FF43BAF94EA0C0F0AD150EA01347FF429
:1044200034AF95EA0C0F7FF425AF104619462CE700
:1044300095EA0C0F06D152EA03353FF4FDAE104663
:10444000194622E750EA410618BF52EA43067FF4B4
:10445000C5AE50EA41047FF40DAF52EA43057FF444
:10446000EBAE12E74A0011D212F5001211D20DD5AF
:104470006FF47873B3EB62520ED44FEAC12343F06A
:10448000004343EA505323FA02F070474FF0000014
:10449000704750EA013002D14FF0FF3070474FF0C3
:1044A000000070474FEA4102B2F1E04324BFB3F588
:1044B000001CDCF1FE5C0DD901F0004C4FEAC0029B
:1044C0004CEA5070B2F1004F40EB830008BF20F07F
:1044D0000100704711F0804F21D113F13872BCBF39
:1044E00001F00040704741F480114FEA5252C2F18E
:1044F0001802C2F1200C10FA0CF320FA02F018BFD7
:1045000040F001004FEAC1234FEAD32303FA0CFC29
:1045100040EA0C0023FA02F34FEA4303CCE77FEAB8
:10452000625307D150EA01331EBF4FF0FE4040F402
:104530004000704701F0004040F0FE4040F40000B1
:10454000704700BF0A22002100F0FAB90A230022B6
:1045500000F062B9931E222B10D80A2A10B506D09B
:1045600000230C46194400F0F7F9204610BD00283E
:10457000F6DA2D230B7040420123F2E70020087089
:10458000704700BFFFF7E6BF830710B5044610D1A0
:104590000268A2F1013323EA020313F0803F08D13D
:1045A00050F8042FA2F1013323EA020313F0803FF5
:1045B000F6D003781BB110F8013F002BFBD100F0BF
:1045C00003F8204610BD00BF80EA0102844612F0C5
:1045D000030F4FD111F0030F32D14DF8044D11F0FC
:1045E000040F51F8043B0BD0A3F101329A4312F0AF
:1045F000803F04BF4CF8043B51F8043B16D100BF88
:1046000051F8044BA3F101329A4312F0803FA4F118
:1046100001320BD14CF8043BA24312F0803F04BF9F
:1046200051F8043B4CF8044BEAD023460CF8013B0C
:1046300013F0FF0F4FEA3323F8D15DF8044B7047B6
:1046400011F0010F06D011F8012B0CF8012B002AF4
:1046500008BF704711F0020FBFD031F8022B12F0E3
:10466000FF0F16BF2CF8022B8CF8002012F47F4F9E
:10467000B3D1704711F8012B0CF8012B002AF9D1A6
:10468000704700BF000000000000000000000000B4
:10469000000000000000000000000000000000001A
:1046A000000000000000000000000000000000000A
:1046B00000000000000000000000000000000000FA
:1046C00090F800F06DE9024520F007016FF0000C52
:1046D00010F0070491F820F040F049804FF00004FA
:1046E0006FF00700D1E9002391F840F000F10800D5
:1046F00082FA4CF2A4FA8CF283FA4CF3A2FA8CF30D
:104700004BBBD1E9022382FA4CF200F10800A4FA73
:104710008CF283FA4CF3A2FA8CF3E3B9D1E90423C7
:1047200082FA4CF200F10800A4FA8CF283FA4CF3FE
:10473000A2FA8CF37BB9D1E9062301F1200182FAB8
:104740004CF200F10800A4FA8CF283FA4CF3A2FABE
:104750008CF3002BC6D0002A04BF04301A4612BACC
:10476000B2FA82F2FDE8024500EBD2007047D1E9CF
:10477000002304F00305C4F100004FEAC50514F05E
:10478000040F91F840F00CFA05F562EA05021CBF2F
:1047900063EA050362464FF00004A9E7024B1A687A
:1047A00001235C3200F002B8A0000020F0B420B376
:1047B00007460D4617F8016B01E0A64216D015F822
:1047C000014B002CF9D1EEB13E460C4616F8015BC8
:1047D00000E073B114F8013B9D42FAD15DB10023B2
:1047E0003B70166006463046F0BC704763B13846F1
:1047F000DEE73746E8E72E46F3E710680028D7D112
:104800000646F0E71660EEE7176006460370EAE733
:104810000123FFF7CBBF00BF2DE9F04F474C834684
:104820000E46D4F800E000E02646344614F8015B5A
:104830000EEB0500407800F0080000F0FF080028AB
:10484000F2D12D2D5CD02B2D04BF7578B41C002B1C
:104850003ED0102B60D09A46B8F1000F0CBF6FF01D
:1048600000404FF000400027B0FBFAF9BC460AFBBD
:1048700019000CE0303DAB4219DD7E1C05D0CC4563
:1048800023D820D00AFB0C5C012714F8015B0EEB47
:104890000506767816F0040FECD116F0030606D064
:1048A000012E14BF57263726AD1BAB42E5DC7B1C1F
:1048B00016D0B8F1000F10D16046002A39D0DFB908
:1048C0001160BDE8F08F8542DCDD4FF0FF37DCE79B
:1048D000302D1AD00A239A46BEE7CCF1000CEBE744
:1048E000B8F1000F4FF022030CBF6FF000404FF003
:1048F0000040CBF80030F2B1611E1160BDE8F08FCE
:10490000B41C75784FF00108A1E7237803F0DF03AA
:10491000582B08D008239EE7302D9CD1207800F03A
:10492000DF00582897D14FF0100A657853460234BB
:1049300092E7BDE8F08FBDE8F08F00BFD004002003
:1049400010B4044C13460A46014620685DF8044B37
:10495000FFF762BFA0000020F0B5DFF878E0164650
:1049600004460F46BEE80F008BB06D460FC5BEE88B
:104970000F000FC59EE80300B31E45F8040B222B61
:10498000297022D87D1E2846002200E01A46B4FB7A
:10499000F6F10AAB06FB114423440C4613F8283CFD
:1049A00000F8013F531C0029F0D1F954BB184AB15B
:1049B000197815F8010F29700134111B8C4203F886
:1049C0000109F5DB38460BB0F0BD002038700BB0A4
:1049D000F0BD00BF9C4C0000FFF7BEBF202C0000C4
:1049E0002C000000204B75727573000020544C00A1
:1049F0002C20000020000000256300000A000000B9
:104A00002D2D2D2D2D2D2D2D2D2D2D2D2D2D2D2DD6
:104A10002D2D2D2D2D2D2D2D2D2D2D2D2D2D2D0AE9
:104A2000000000005061726120676972697369005B
:104A3000796170696E697A2E2E2E000074616E6540
:104A4000203235206B7572757300000061747469D3
:104A50006E697A0074616E65203530206B757275F1
:104A60007300000074616E65203120544C0000001A
:104A7000544C00007061726120617474696E697ACF
:104A8000000000005572756E20736563696E697A67
:104A90002E2E2E0053696669726C616E69796F7291
:104AA0002E2E2E0053746F6B6C61726461200000B7
:104AB0006B616C6D616D697374697200456B7369CC
:104AC0006B207061726100005041524120494144A5
:104AD00045534900594150494C49594F5200000033
:104AE00053746F6B7461200049736C656D2079613C
:104AF00070696C69796F7200736179697369207587
:104B0000726574696C6469005061726120757374B8
:104B100075000000766572696C69796F722E2E2EB1
:104B20000000000059656E6964656E2064657672E8
:104B300065796500676972696C69796F7200000058
:104B40004B61736164612079657465726C69000002
:104B50007061726120796F6B74757200303132331D
:104B600034353637383961626364656600000000A9
:104B7000082008000D0A0000200000004552524F96
:104B80005200000000C0004000D0004000E00040A3
:104B9000001800F0011800F0021800F0004000407A
:104BA000008005400050004000900540006000403B
:104BB00000A005400070004000B0054000400240E9
:104BC00000C005400050024000D005400060024097
:104BD00000E005400070024000F0054000D00340B6
:104BE000000006400010064000100640002006406D
:104BF00000200640003006400030064000400640DD
:104C0000004006400050064000500640006006404C
:104C100000600640007006400070064000800640BC
:104C200000800640009006400090064040420F0081
:104C300000201C0080841E0000802500999E360004
:104C40000040380000093D0000803E0000004B009D
:104C5000404B4C0000204E00808D5B0000C05D008A
:104C60000080700000127A0000007D00809698009D
:104C7000001BB7000080BB00C0E8CE00647ADA00F9
:104C80000024F4000000FA0080A81201002D310178
:104C900000366E0140787D01430000003031323330
:104CA0003435363738396162636465666768696AC6
:104CB0006B6C6D6E6F707172737475767778797ACC
:104CC0000000000000202020202020202020282874
:104CD00028282820202020202020202020202020BC
:104CE00020202020208810101010101010101010FC
:104CF000101010101004040404040404040404102C
:104D000010101010101041414141414101010101B9
:104D10000101010101010101010101010101010183
:104D2000101010101010424242424242020202028F
:104D30000202020202020202020202020202020253
:104D40001010101020000000000000000000000003
:104D50000000000000000000000000000000000053
:104D60000000000000000000000000000000000043
:104D70000000000000000000000000000000000033
:104D80000000000000000000000000000000000023
:104D90000000000000000000000000000000000013
:104DA0000000000000000000000000000000000003
:104DB00000000000000000000000000000000000F3
:104DC0000000000000000000F8B500BFF8BC08BCFF
:104DD0009E467047F8B500BFF8BC08BC9E467047B9
:104DE00032302C32302C3130000000000000000046
:104DF000000000000000000000312C73752C352CE1
:104E00003530204B75727573000000000000000003
:104E10000000322C6361792C31302C3120544C004D
:104E20000000000000000000000000332C6B6168EF
:104E300076652C31352C312E3520544C0000000085
:104E400000000000342C63696B6F6C6174612C3559
:104E5000302C312E373520544C00000000352C62A8
:104E600069736B7576692C3130302C3220544C00CC
:104E7000000000000000050001000000000000002C
:104E8000A8000020000000000000000094030020A3
:104E9000FC0300206404002000000000000000006B
:104EA0000000000000000000000000000000000002
:104EB000000000000000000000000000984C00000E
:104EC00000000000000000000000000000000000E2
:104ED00000000000000000000000000000000000D2
:104EE00000000000000000000000000000000000C2
:104EF00000000000000000000000000000000000B2
:104F000000000000000000000000000000000000A1
:104F10000000000000000000000000000000000091
:104F20000000000000000000000000000000000081
:104F300001000000000000000E33CDAB34126DE61E
:104F4000ECDE05000B000000000000000000000087
:104F50000000000000000000000000000000000051
:104F60000000000000000000000000000000000041
:104F70000000000000000000000000000000000031
:104F80000000000000000000000000000000000021
:0452B000C44C0000EA
:00000001FF
